{
  "_format": "hh-sol-artifact-1",
  "contractName": "MountTechSolution",
  "sourceName": "contracts/TheBlockchainCoders.sol",
  "abi": [
    {
      "inputs": [
        {
          "internalType": "uint256",
          "name": "_initialSupply",
          "type": "uint256"
        }
      ],
      "stateMutability": "nonpayable",
      "type": "constructor"
    },
    {
      "anonymous": false,
      "inputs": [
        {
          "indexed": true,
          "internalType": "address",
          "name": "_owner",
          "type": "address"
        },
        {
          "indexed": true,
          "internalType": "address",
          "name": "_spender",
          "type": "address"
        },
        {
          "indexed": false,
          "internalType": "uint256",
          "name": "_value",
          "type": "uint256"
        }
      ],
      "name": "Approval",
      "type": "event"
    },
    {
      "anonymous": false,
      "inputs": [
        {
          "indexed": true,
          "internalType": "address",
          "name": "_from",
          "type": "address"
        },
        {
          "indexed": true,
          "internalType": "address",
          "name": "_to",
          "type": "address"
        },
        {
          "indexed": false,
          "internalType": "uint256",
          "name": "_value",
          "type": "uint256"
        }
      ],
      "name": "Transfer",
      "type": "event"
    },
    {
      "inputs": [],
      "name": "_userId",
      "outputs": [
        {
          "internalType": "uint256",
          "name": "",
          "type": "uint256"
        }
      ],
      "stateMutability": "view",
      "type": "function"
    },
    {
      "inputs": [
        {
          "internalType": "address",
          "name": "",
          "type": "address"
        },
        {
          "internalType": "address",
          "name": "",
          "type": "address"
        }
      ],
      "name": "allowance",
      "outputs": [
        {
          "internalType": "uint256",
          "name": "",
          "type": "uint256"
        }
      ],
      "stateMutability": "view",
      "type": "function"
    },
    {
      "inputs": [
        {
          "internalType": "address",
          "name": "_spender",
          "type": "address"
        },
        {
          "internalType": "uint256",
          "name": "_value",
          "type": "uint256"
        }
      ],
      "name": "approve",
      "outputs": [
        {
          "internalType": "bool",
          "name": "success",
          "type": "bool"
        }
      ],
      "stateMutability": "nonpayable",
      "type": "function"
    },
    {
      "inputs": [
        {
          "internalType": "address",
          "name": "",
          "type": "address"
        }
      ],
      "name": "balanceOf",
      "outputs": [
        {
          "internalType": "uint256",
          "name": "",
          "type": "uint256"
        }
      ],
      "stateMutability": "view",
      "type": "function"
    },
    {
      "inputs": [],
      "name": "getTokenHolder",
      "outputs": [
        {
          "internalType": "address[]",
          "name": "",
          "type": "address[]"
        }
      ],
      "stateMutability": "view",
      "type": "function"
    },
    {
      "inputs": [
        {
          "internalType": "address",
          "name": "_address",
          "type": "address"
        }
      ],
      "name": "getTokenHolderData",
      "outputs": [
        {
          "internalType": "uint256",
          "name": "",
          "type": "uint256"
        },
        {
          "internalType": "address",
          "name": "",
          "type": "address"
        },
        {
          "internalType": "address",
          "name": "",
          "type": "address"
        },
        {
          "internalType": "uint256",
          "name": "",
          "type": "uint256"
        },
        {
          "internalType": "bool",
          "name": "",
          "type": "bool"
        }
      ],
      "stateMutability": "view",
      "type": "function"
    },
    {
      "inputs": [
        {
          "internalType": "uint256",
          "name": "",
          "type": "uint256"
        }
      ],
      "name": "holderToken",
      "outputs": [
        {
          "internalType": "address",
          "name": "",
          "type": "address"
        }
      ],
      "stateMutability": "view",
      "type": "function"
    },
    {
      "inputs": [],
      "name": "name",
      "outputs": [
        {
          "internalType": "string",
          "name": "",
          "type": "string"
        }
      ],
      "stateMutability": "view",
      "type": "function"
    },
    {
      "inputs": [],
      "name": "ownerOfContract",
      "outputs": [
        {
          "internalType": "address",
          "name": "",
          "type": "address"
        }
      ],
      "stateMutability": "view",
      "type": "function"
    },
    {
      "inputs": [],
      "name": "standard",
      "outputs": [
        {
          "internalType": "string",
          "name": "",
          "type": "string"
        }
      ],
      "stateMutability": "view",
      "type": "function"
    },
    {
      "inputs": [],
      "name": "symbol",
      "outputs": [
        {
          "internalType": "string",
          "name": "",
          "type": "string"
        }
      ],
      "stateMutability": "view",
      "type": "function"
    },
    {
      "inputs": [
        {
          "internalType": "address",
          "name": "",
          "type": "address"
        }
      ],
      "name": "tokenHolderInfos",
      "outputs": [
        {
          "internalType": "uint256",
          "name": "_tokenId",
          "type": "uint256"
        },
        {
          "internalType": "address",
          "name": "_from",
          "type": "address"
        },
        {
          "internalType": "address",
          "name": "_to",
          "type": "address"
        },
        {
          "internalType": "uint256",
          "name": "_totalToken",
          "type": "uint256"
        },
        {
          "internalType": "bool",
          "name": "_tokenHolder",
          "type": "bool"
        }
      ],
      "stateMutability": "view",
      "type": "function"
    },
    {
      "inputs": [],
      "name": "totalSupply",
      "outputs": [
        {
          "internalType": "uint256",
          "name": "",
          "type": "uint256"
        }
      ],
      "stateMutability": "view",
      "type": "function"
    },
    {
      "inputs": [
        {
          "internalType": "address",
          "name": "_to",
          "type": "address"
        },
        {
          "internalType": "uint256",
          "name": "_value",
          "type": "uint256"
        }
      ],
      "name": "transfer",
      "outputs": [
        {
          "internalType": "bool",
          "name": "success",
          "type": "bool"
        }
      ],
      "stateMutability": "nonpayable",
      "type": "function"
    },
    {
      "inputs": [
        {
          "internalType": "address",
          "name": "_from",
          "type": "address"
        },
        {
          "internalType": "address",
          "name": "_to",
          "type": "address"
        },
        {
          "internalType": "uint256",
          "name": "_value",
          "type": "uint256"
        }
      ],
      "name": "transferFrom",
      "outputs": [
        {
          "internalType": "bool",
          "name": "success",
          "type": "bool"
        }
      ],
      "stateMutability": "nonpayable",
      "type": "function"
    }
  ],
  "bytecode": "0x60806040526040518060400160405280600a81526020017f4d6f756e742054656368000000000000000000000000000000000000000000008152506000908051906020019062000051929190620001b4565b506040518060400160405280600381526020017f4d54540000000000000000000000000000000000000000000000000000000000815250600190805190602001906200009f929190620001b4565b506040518060400160405280601781526020017f406d6f756e74656368736f6c7574696f6e20762e302e3100000000000000000081525060029080519060200190620000ed929190620001b4565b50348015620000fb57600080fd5b50604051620019353803806200193583398181016040528101906200012191906200027b565b33600460006101000a81548173ffffffffffffffffffffffffffffffffffffffff021916908373ffffffffffffffffffffffffffffffffffffffff16021790555080600860003373ffffffffffffffffffffffffffffffffffffffff1673ffffffffffffffffffffffffffffffffffffffff16815260200190815260200160002081905550806003819055505062000330565b828054620001c290620002b1565b90600052602060002090601f016020900481019282620001e6576000855562000232565b82601f106200020157805160ff191683800117855562000232565b8280016001018555821562000232579182015b828111156200023157825182559160200191906001019062000214565b5b50905062000241919062000245565b5090565b5b808211156200026057600081600090555060010162000246565b5090565b600081519050620002758162000316565b92915050565b6000602082840312156200028e57600080fd5b60006200029e8482850162000264565b91505092915050565b6000819050919050565b60006002820490506001821680620002ca57607f821691505b60208210811415620002e157620002e0620002e7565b5b50919050565b7f4e487b7100000000000000000000000000000000000000000000000000000000600052602260045260246000fd5b6200032181620002a7565b81146200032d57600080fd5b50565b6115f580620003406000396000f3fe608060405234801561001057600080fd5b50600436106100f55760003560e01c806370a0823111610097578063a9059cbb11610066578063a9059cbb146102b8578063ba8e3557146102e8578063bc4530e714610306578063dd62ed3e14610324576100f5565b806370a0823114610206578063760b06c51461023657806382b682631461026657806395d89b411461029a576100f5565b806323b872dd116100d357806323b872dd1461016657806329cc66ed14610196578063468229ae146101ca5780635a3b7e42146101e8576100f5565b806306fdde03146100fa578063095ea7b31461011857806318160ddd14610148575b600080fd5b610102610354565b60405161010f919061127d565b60405180910390f35b610132600480360381019061012d9190611055565b6103e2565b60405161013f9190611262565b60405180910390f35b6101506104d4565b60405161015d91906112df565b60405180910390f35b610180600480360381019061017b9190611006565b6104da565b60405161018d9190611262565b60405180910390f35b6101b060048036038101906101ab9190610fa1565b6107cc565b6040516101c19594939291906112fa565b60405180910390f35b6101d261084f565b6040516101df9190611225565b60405180910390f35b6101f0610875565b6040516101fd919061127d565b60405180910390f35b610220600480360381019061021b9190610fa1565b610903565b60405161022d91906112df565b60405180910390f35b610250600480360381019061024b9190611091565b61091b565b60405161025d9190611225565b60405180910390f35b610280600480360381019061027b9190610fa1565b61095a565b6040516102919594939291906112fa565b60405180910390f35b6102a2610b11565b6040516102af919061127d565b60405180910390f35b6102d260048036038101906102cd9190611055565b610b9f565b6040516102df9190611262565b60405180910390f35b6102f0610ea4565b6040516102fd9190611240565b60405180910390f35b61030e610f32565b60405161031b91906112df565b60405180910390f35b61033e60048036038101906103399190610fca565b610f38565b60405161034b91906112df565b60405180910390f35b60008054610361906114a7565b80601f016020809104026020016040519081016040528092919081815260200182805461038d906114a7565b80156103da5780601f106103af576101008083540402835291602001916103da565b820191906000526020600020905b8154815290600101906020018083116103bd57829003601f168201915b505050505081565b600081600960003373ffffffffffffffffffffffffffffffffffffffff1673ffffffffffffffffffffffffffffffffffffffff16815260200190815260200160002060008573ffffffffffffffffffffffffffffffffffffffff1673ffffffffffffffffffffffffffffffffffffffff168152602001908152602001600020819055508273ffffffffffffffffffffffffffffffffffffffff163373ffffffffffffffffffffffffffffffffffffffff167f8c5be1e5ebec7d5bd14f71427d1e84f3dd0314c0f7b2291e5b200ac8c7c3b925846040516104c291906112df565b60405180910390a36001905092915050565b60035481565b6000600860008573ffffffffffffffffffffffffffffffffffffffff1673ffffffffffffffffffffffffffffffffffffffff1681526020019081526020016000205482111561055e576040517f08c379a0000000000000000000000000000000000000000000000000000000008152600401610555906112bf565b60405180910390fd5b600960008573ffffffffffffffffffffffffffffffffffffffff1673ffffffffffffffffffffffffffffffffffffffff16815260200190815260200160002060003373ffffffffffffffffffffffffffffffffffffffff1673ffffffffffffffffffffffffffffffffffffffff1681526020019081526020016000205482111561061d576040517f08c379a00000000000000000000000000000000000000000000000000000000081526004016106149061129f565b60405180910390fd5b81600860008673ffffffffffffffffffffffffffffffffffffffff1673ffffffffffffffffffffffffffffffffffffffff168152602001908152602001600020600082825461066c91906113f8565b9250508190555081600860008573ffffffffffffffffffffffffffffffffffffffff1673ffffffffffffffffffffffffffffffffffffffff16815260200190815260200160002060008282546106c291906113a2565b9250508190555081600960008673ffffffffffffffffffffffffffffffffffffffff1673ffffffffffffffffffffffffffffffffffffffff16815260200190815260200160002060003373ffffffffffffffffffffffffffffffffffffffff1673ffffffffffffffffffffffffffffffffffffffff168152602001908152602001600020600082825461075591906113f8565b925050819055508273ffffffffffffffffffffffffffffffffffffffff168473ffffffffffffffffffffffffffffffffffffffff167fddf252ad1be2c89b69c2b068fc378daa952ba7f163c4a11628f55a4df523b3ef846040516107b991906112df565b60405180910390a3600190509392505050565b60076020528060005260406000206000915090508060000154908060010160009054906101000a900473ffffffffffffffffffffffffffffffffffffffff16908060020160009054906101000a900473ffffffffffffffffffffffffffffffffffffffff16908060030154908060040160009054906101000a900460ff16905085565b600460009054906101000a900473ffffffffffffffffffffffffffffffffffffffff1681565b60028054610882906114a7565b80601f01602080910402602001604051908101604052809291908181526020018280546108ae906114a7565b80156108fb5780601f106108d0576101008083540402835291602001916108fb565b820191906000526020600020905b8154815290600101906020018083116108de57829003601f168201915b505050505081565b60086020528060005260406000206000915090505481565b6006818154811061092b57600080fd5b906000526020600020016000915054906101000a900473ffffffffffffffffffffffffffffffffffffffff1681565b6000806000806000600760008773ffffffffffffffffffffffffffffffffffffffff1673ffffffffffffffffffffffffffffffffffffffff16815260200190815260200160002060000154600760008873ffffffffffffffffffffffffffffffffffffffff1673ffffffffffffffffffffffffffffffffffffffff16815260200190815260200160002060020160009054906101000a900473ffffffffffffffffffffffffffffffffffffffff16600760008973ffffffffffffffffffffffffffffffffffffffff1673ffffffffffffffffffffffffffffffffffffffff16815260200190815260200160002060010160009054906101000a900473ffffffffffffffffffffffffffffffffffffffff16600760008a73ffffffffffffffffffffffffffffffffffffffff1673ffffffffffffffffffffffffffffffffffffffff16815260200190815260200160002060030154600760008b73ffffffffffffffffffffffffffffffffffffffff1673ffffffffffffffffffffffffffffffffffffffff16815260200190815260200160002060040160009054906101000a900460ff169450945094509450945091939590929450565b60018054610b1e906114a7565b80601f0160208091040260200160405190810160405280929190818152602001828054610b4a906114a7565b8015610b975780601f10610b6c57610100808354040283529160200191610b97565b820191906000526020600020905b815481529060010190602001808311610b7a57829003601f168201915b505050505081565b600081600860003373ffffffffffffffffffffffffffffffffffffffff1673ffffffffffffffffffffffffffffffffffffffff168152602001908152602001600020541015610c23576040517f08c379a0000000000000000000000000000000000000000000000000000000008152600401610c1a906112bf565b60405180910390fd5b610c2b610f5d565b81600860003373ffffffffffffffffffffffffffffffffffffffff1673ffffffffffffffffffffffffffffffffffffffff1681526020019081526020016000206000828254610c7a91906113f8565b9250508190555081600860008573ffffffffffffffffffffffffffffffffffffffff1673ffffffffffffffffffffffffffffffffffffffff1681526020019081526020016000206000828254610cd091906113a2565b925050819055506000600760008573ffffffffffffffffffffffffffffffffffffffff1673ffffffffffffffffffffffffffffffffffffffff1681526020019081526020016000209050838160020160006101000a81548173ffffffffffffffffffffffffffffffffffffffff021916908373ffffffffffffffffffffffffffffffffffffffff160217905550338160010160006101000a81548173ffffffffffffffffffffffffffffffffffffffff021916908373ffffffffffffffffffffffffffffffffffffffff16021790555060018160040160006101000a81548160ff02191690831515021790555082816003018190555060055481600001819055506006849080600181540180825580915050600190039060005260206000200160009091909190916101000a81548173ffffffffffffffffffffffffffffffffffffffff021916908373ffffffffffffffffffffffffffffffffffffffff1602179055508373ffffffffffffffffffffffffffffffffffffffff163373ffffffffffffffffffffffffffffffffffffffff167fddf252ad1be2c89b69c2b068fc378daa952ba7f163c4a11628f55a4df523b3ef85604051610e9191906112df565b60405180910390a3600191505092915050565b60606006805480602002602001604051908101604052809291908181526020018280548015610f2857602002820191906000526020600020905b8160009054906101000a900473ffffffffffffffffffffffffffffffffffffffff1673ffffffffffffffffffffffffffffffffffffffff1681526020019060010190808311610ede575b5050505050905090565b60055481565b6009602052816000526040600020602052806000526040600020600091509150505481565b60056000815480929190610f70906114d9565b9190505550565b600081359050610f8681611591565b92915050565b600081359050610f9b816115a8565b92915050565b600060208284031215610fb357600080fd5b6000610fc184828501610f77565b91505092915050565b60008060408385031215610fdd57600080fd5b6000610feb85828601610f77565b9250506020610ffc85828601610f77565b9150509250929050565b60008060006060848603121561101b57600080fd5b600061102986828701610f77565b935050602061103a86828701610f77565b925050604061104b86828701610f8c565b9150509250925092565b6000806040838503121561106857600080fd5b600061107685828601610f77565b925050602061108785828601610f8c565b9150509250929050565b6000602082840312156110a357600080fd5b60006110b184828501610f8c565b91505092915050565b60006110c683836110d2565b60208301905092915050565b6110db8161142c565b82525050565b6110ea8161142c565b82525050565b60006110fb8261135d565b6111058185611380565b93506111108361134d565b8060005b8381101561114157815161112888826110ba565b975061113383611373565b925050600181019050611114565b5085935050505092915050565b6111578161143e565b82525050565b600061116882611368565b6111728185611391565b9350611182818560208601611474565b61118b81611580565b840191505092915050565b60006111a3601283611391565b91507f416c6c6f77616e636520657863656564656400000000000000000000000000006000830152602082019050919050565b60006111e3601483611391565b91507f496e73756666696369656e742062616c616e63650000000000000000000000006000830152602082019050919050565b61121f8161146a565b82525050565b600060208201905061123a60008301846110e1565b92915050565b6000602082019050818103600083015261125a81846110f0565b905092915050565b6000602082019050611277600083018461114e565b92915050565b60006020820190508181036000830152611297818461115d565b905092915050565b600060208201905081810360008301526112b881611196565b9050919050565b600060208201905081810360008301526112d8816111d6565b9050919050565b60006020820190506112f46000830184611216565b92915050565b600060a08201905061130f6000830188611216565b61131c60208301876110e1565b61132960408301866110e1565b6113366060830185611216565b611343608083018461114e565b9695505050505050565b6000819050602082019050919050565b600081519050919050565b600081519050919050565b6000602082019050919050565b600082825260208201905092915050565b600082825260208201905092915050565b60006113ad8261146a565b91506113b88361146a565b9250827fffffffffffffffffffffffffffffffffffffffffffffffffffffffffffffffff038211156113ed576113ec611522565b5b828201905092915050565b60006114038261146a565b915061140e8361146a565b92508282101561142157611420611522565b5b828203905092915050565b60006114378261144a565b9050919050565b60008115159050919050565b600073ffffffffffffffffffffffffffffffffffffffff82169050919050565b6000819050919050565b60005b83811015611492578082015181840152602081019050611477565b838111156114a1576000848401525b50505050565b600060028204905060018216806114bf57607f821691505b602082108114156114d3576114d2611551565b5b50919050565b60006114e48261146a565b91507fffffffffffffffffffffffffffffffffffffffffffffffffffffffffffffffff82141561151757611516611522565b5b600182019050919050565b7f4e487b7100000000000000000000000000000000000000000000000000000000600052601160045260246000fd5b7f4e487b7100000000000000000000000000000000000000000000000000000000600052602260045260246000fd5b6000601f19601f8301169050919050565b61159a8161142c565b81146115a557600080fd5b50565b6115b18161146a565b81146115bc57600080fd5b5056fea264697066735822122018553c011182201e443c33064f25dde0642e3e69ba9aef2efda9c15239bef1c364736f6c63430008000033",
  "linkReferences": {},
  "deployedLinkReferences": {}
}