{
  "_format": "hh-sol-artifact-1",
  "contractName": "MountTechSolution",
  "sourceName": "contracts/TheBlockchainCoders.sol",
  "abi": [
    {
      "inputs": [
        {
          "internalType": "uint256",
          "name": "_initialSupply",
          "type": "uint256"
        }
      ],
      "stateMutability": "nonpayable",
      "type": "constructor"
    },
    {
      "anonymous": false,
      "inputs": [
        {
          "indexed": true,
          "internalType": "address",
          "name": "_owner",
          "type": "address"
        },
        {
          "indexed": true,
          "internalType": "address",
          "name": "_spender",
          "type": "address"
        },
        {
          "indexed": false,
          "internalType": "uint256",
          "name": "_value",
          "type": "uint256"
        }
      ],
      "name": "Approval",
      "type": "event"
    },
    {
      "anonymous": false,
      "inputs": [
        {
          "indexed": true,
          "internalType": "address",
          "name": "_from",
          "type": "address"
        },
        {
          "indexed": true,
          "internalType": "address",
          "name": "_to",
          "type": "address"
        },
        {
          "indexed": false,
          "internalType": "uint256",
          "name": "_value",
          "type": "uint256"
        }
      ],
      "name": "Transfer",
      "type": "event"
    },
    {
      "inputs": [],
      "name": "_userId",
      "outputs": [
        {
          "internalType": "uint256",
          "name": "",
          "type": "uint256"
        }
      ],
      "stateMutability": "view",
      "type": "function"
    },
    {
      "inputs": [
        {
          "internalType": "address",
          "name": "",
          "type": "address"
        },
        {
          "internalType": "address",
          "name": "",
          "type": "address"
        }
      ],
      "name": "allowance",
      "outputs": [
        {
          "internalType": "uint256",
          "name": "",
          "type": "uint256"
        }
      ],
      "stateMutability": "view",
      "type": "function"
    },
    {
      "inputs": [
        {
          "internalType": "address",
          "name": "_spender",
          "type": "address"
        },
        {
          "internalType": "uint256",
          "name": "_value",
          "type": "uint256"
        }
      ],
      "name": "approve",
      "outputs": [
        {
          "internalType": "bool",
          "name": "success",
          "type": "bool"
        }
      ],
      "stateMutability": "nonpayable",
      "type": "function"
    },
    {
      "inputs": [
        {
          "internalType": "address",
          "name": "",
          "type": "address"
        }
      ],
      "name": "balanceOf",
      "outputs": [
        {
          "internalType": "uint256",
          "name": "",
          "type": "uint256"
        }
      ],
      "stateMutability": "view",
      "type": "function"
    },
    {
      "inputs": [],
      "name": "decimals",
      "outputs": [
        {
          "internalType": "uint256",
          "name": "",
          "type": "uint256"
        }
      ],
      "stateMutability": "view",
      "type": "function"
    },
    {
      "inputs": [],
      "name": "getTokenHolder",
      "outputs": [
        {
          "internalType": "address[]",
          "name": "",
          "type": "address[]"
        }
      ],
      "stateMutability": "view",
      "type": "function"
    },
    {
      "inputs": [
        {
          "internalType": "address",
          "name": "_address",
          "type": "address"
        }
      ],
      "name": "getTokenHolderData",
      "outputs": [
        {
          "internalType": "uint256",
          "name": "",
          "type": "uint256"
        },
        {
          "internalType": "address",
          "name": "",
          "type": "address"
        },
        {
          "internalType": "address",
          "name": "",
          "type": "address"
        },
        {
          "internalType": "uint256",
          "name": "",
          "type": "uint256"
        },
        {
          "internalType": "bool",
          "name": "",
          "type": "bool"
        }
      ],
      "stateMutability": "view",
      "type": "function"
    },
    {
      "inputs": [
        {
          "internalType": "uint256",
          "name": "",
          "type": "uint256"
        }
      ],
      "name": "holderToken",
      "outputs": [
        {
          "internalType": "address",
          "name": "",
          "type": "address"
        }
      ],
      "stateMutability": "view",
      "type": "function"
    },
    {
      "inputs": [],
      "name": "name",
      "outputs": [
        {
          "internalType": "string",
          "name": "",
          "type": "string"
        }
      ],
      "stateMutability": "view",
      "type": "function"
    },
    {
      "inputs": [],
      "name": "ownerOfContract",
      "outputs": [
        {
          "internalType": "address",
          "name": "",
          "type": "address"
        }
      ],
      "stateMutability": "view",
      "type": "function"
    },
    {
      "inputs": [],
      "name": "standard",
      "outputs": [
        {
          "internalType": "string",
          "name": "",
          "type": "string"
        }
      ],
      "stateMutability": "view",
      "type": "function"
    },
    {
      "inputs": [],
      "name": "symbol",
      "outputs": [
        {
          "internalType": "string",
          "name": "",
          "type": "string"
        }
      ],
      "stateMutability": "view",
      "type": "function"
    },
    {
      "inputs": [
        {
          "internalType": "address",
          "name": "",
          "type": "address"
        }
      ],
      "name": "tokenHolderInfos",
      "outputs": [
        {
          "internalType": "uint256",
          "name": "_tokenId",
          "type": "uint256"
        },
        {
          "internalType": "address",
          "name": "_from",
          "type": "address"
        },
        {
          "internalType": "address",
          "name": "_to",
          "type": "address"
        },
        {
          "internalType": "uint256",
          "name": "_totalToken",
          "type": "uint256"
        },
        {
          "internalType": "bool",
          "name": "_tokenHolder",
          "type": "bool"
        }
      ],
      "stateMutability": "view",
      "type": "function"
    },
    {
      "inputs": [],
      "name": "totalSupply",
      "outputs": [
        {
          "internalType": "uint256",
          "name": "",
          "type": "uint256"
        }
      ],
      "stateMutability": "view",
      "type": "function"
    },
    {
      "inputs": [
        {
          "internalType": "address",
          "name": "_to",
          "type": "address"
        },
        {
          "internalType": "uint256",
          "name": "_value",
          "type": "uint256"
        }
      ],
      "name": "transfer",
      "outputs": [
        {
          "internalType": "bool",
          "name": "success",
          "type": "bool"
        }
      ],
      "stateMutability": "nonpayable",
      "type": "function"
    },
    {
      "inputs": [
        {
          "internalType": "address",
          "name": "_from",
          "type": "address"
        },
        {
          "internalType": "address",
          "name": "_to",
          "type": "address"
        },
        {
          "internalType": "uint256",
          "name": "_value",
          "type": "uint256"
        }
      ],
      "name": "transferFrom",
      "outputs": [
        {
          "internalType": "bool",
          "name": "success",
          "type": "bool"
        }
      ],
      "stateMutability": "nonpayable",
      "type": "function"
    }
  ],
  "bytecode": "0x60806040526040518060400160405280600a81526020017f4d6f756e742054656368000000000000000000000000000000000000000000008152506000908051906020019062000051929190620001b9565b506040518060400160405280600381526020017f4d54540000000000000000000000000000000000000000000000000000000000815250600190805190602001906200009f929190620001b9565b506040518060400160405280601781526020017f406d6f756e74656368736f6c7574696f6e20762e302e3100000000000000000081525060029080519060200190620000ed929190620001b9565b5060046006553480156200010057600080fd5b506040516200196938038062001969833981810160405281019062000126919062000280565b33600460006101000a81548173ffffffffffffffffffffffffffffffffffffffff021916908373ffffffffffffffffffffffffffffffffffffffff16021790555080600960003373ffffffffffffffffffffffffffffffffffffffff1673ffffffffffffffffffffffffffffffffffffffff16815260200190815260200160002081905550806003819055505062000335565b828054620001c790620002b6565b90600052602060002090601f016020900481019282620001eb576000855562000237565b82601f106200020657805160ff191683800117855562000237565b8280016001018555821562000237579182015b828111156200023657825182559160200191906001019062000219565b5b5090506200024691906200024a565b5090565b5b80821115620002655760008160009055506001016200024b565b5090565b6000815190506200027a816200031b565b92915050565b6000602082840312156200029357600080fd5b6000620002a38482850162000269565b91505092915050565b6000819050919050565b60006002820490506001821680620002cf57607f821691505b60208210811415620002e657620002e5620002ec565b5b50919050565b7f4e487b7100000000000000000000000000000000000000000000000000000000600052602260045260246000fd5b6200032681620002ac565b81146200033257600080fd5b50565b61162480620003456000396000f3fe608060405234801561001057600080fd5b50600436106101005760003560e01c806370a0823111610097578063a9059cbb11610066578063a9059cbb146102e1578063ba8e355714610311578063bc4530e71461032f578063dd62ed3e1461034d57610100565b806370a082311461022f578063760b06c51461025f57806382b682631461028f57806395d89b41146102c357610100565b806329cc66ed116100d357806329cc66ed146101a1578063313ce567146101d5578063468229ae146101f35780635a3b7e421461021157610100565b806306fdde0314610105578063095ea7b31461012357806318160ddd1461015357806323b872dd14610171575b600080fd5b61010d61037d565b60405161011a91906112ac565b60405180910390f35b61013d60048036038101906101389190611084565b61040b565b60405161014a9190611291565b60405180910390f35b61015b6104fd565b604051610168919061130e565b60405180910390f35b61018b60048036038101906101869190611035565b610503565b6040516101989190611291565b60405180910390f35b6101bb60048036038101906101b69190610fd0565b6107f5565b6040516101cc959493929190611329565b60405180910390f35b6101dd610878565b6040516101ea919061130e565b60405180910390f35b6101fb61087e565b6040516102089190611254565b60405180910390f35b6102196108a4565b60405161022691906112ac565b60405180910390f35b61024960048036038101906102449190610fd0565b610932565b604051610256919061130e565b60405180910390f35b610279600480360381019061027491906110c0565b61094a565b6040516102869190611254565b60405180910390f35b6102a960048036038101906102a49190610fd0565b610989565b6040516102ba959493929190611329565b60405180910390f35b6102cb610b40565b6040516102d891906112ac565b60405180910390f35b6102fb60048036038101906102f69190611084565b610bce565b6040516103089190611291565b60405180910390f35b610319610ed3565b604051610326919061126f565b60405180910390f35b610337610f61565b604051610344919061130e565b60405180910390f35b61036760048036038101906103629190610ff9565b610f67565b604051610374919061130e565b60405180910390f35b6000805461038a906114d6565b80601f01602080910402602001604051908101604052809291908181526020018280546103b6906114d6565b80156104035780601f106103d857610100808354040283529160200191610403565b820191906000526020600020905b8154815290600101906020018083116103e657829003601f168201915b505050505081565b600081600a60003373ffffffffffffffffffffffffffffffffffffffff1673ffffffffffffffffffffffffffffffffffffffff16815260200190815260200160002060008573ffffffffffffffffffffffffffffffffffffffff1673ffffffffffffffffffffffffffffffffffffffff168152602001908152602001600020819055508273ffffffffffffffffffffffffffffffffffffffff163373ffffffffffffffffffffffffffffffffffffffff167f8c5be1e5ebec7d5bd14f71427d1e84f3dd0314c0f7b2291e5b200ac8c7c3b925846040516104eb919061130e565b60405180910390a36001905092915050565b60035481565b6000600960008573ffffffffffffffffffffffffffffffffffffffff1673ffffffffffffffffffffffffffffffffffffffff16815260200190815260200160002054821115610587576040517f08c379a000000000000000000000000000000000000000000000000000000000815260040161057e906112ee565b60405180910390fd5b600a60008573ffffffffffffffffffffffffffffffffffffffff1673ffffffffffffffffffffffffffffffffffffffff16815260200190815260200160002060003373ffffffffffffffffffffffffffffffffffffffff1673ffffffffffffffffffffffffffffffffffffffff16815260200190815260200160002054821115610646576040517f08c379a000000000000000000000000000000000000000000000000000000000815260040161063d906112ce565b60405180910390fd5b81600960008673ffffffffffffffffffffffffffffffffffffffff1673ffffffffffffffffffffffffffffffffffffffff16815260200190815260200160002060008282546106959190611427565b9250508190555081600960008573ffffffffffffffffffffffffffffffffffffffff1673ffffffffffffffffffffffffffffffffffffffff16815260200190815260200160002060008282546106eb91906113d1565b9250508190555081600a60008673ffffffffffffffffffffffffffffffffffffffff1673ffffffffffffffffffffffffffffffffffffffff16815260200190815260200160002060003373ffffffffffffffffffffffffffffffffffffffff1673ffffffffffffffffffffffffffffffffffffffff168152602001908152602001600020600082825461077e9190611427565b925050819055508273ffffffffffffffffffffffffffffffffffffffff168473ffffffffffffffffffffffffffffffffffffffff167fddf252ad1be2c89b69c2b068fc378daa952ba7f163c4a11628f55a4df523b3ef846040516107e2919061130e565b60405180910390a3600190509392505050565b60086020528060005260406000206000915090508060000154908060010160009054906101000a900473ffffffffffffffffffffffffffffffffffffffff16908060020160009054906101000a900473ffffffffffffffffffffffffffffffffffffffff16908060030154908060040160009054906101000a900460ff16905085565b60065481565b600460009054906101000a900473ffffffffffffffffffffffffffffffffffffffff1681565b600280546108b1906114d6565b80601f01602080910402602001604051908101604052809291908181526020018280546108dd906114d6565b801561092a5780601f106108ff5761010080835404028352916020019161092a565b820191906000526020600020905b81548152906001019060200180831161090d57829003601f168201915b505050505081565b60096020528060005260406000206000915090505481565b6007818154811061095a57600080fd5b906000526020600020016000915054906101000a900473ffffffffffffffffffffffffffffffffffffffff1681565b6000806000806000600860008773ffffffffffffffffffffffffffffffffffffffff1673ffffffffffffffffffffffffffffffffffffffff16815260200190815260200160002060000154600860008873ffffffffffffffffffffffffffffffffffffffff1673ffffffffffffffffffffffffffffffffffffffff16815260200190815260200160002060020160009054906101000a900473ffffffffffffffffffffffffffffffffffffffff16600860008973ffffffffffffffffffffffffffffffffffffffff1673ffffffffffffffffffffffffffffffffffffffff16815260200190815260200160002060010160009054906101000a900473ffffffffffffffffffffffffffffffffffffffff16600860008a73ffffffffffffffffffffffffffffffffffffffff1673ffffffffffffffffffffffffffffffffffffffff16815260200190815260200160002060030154600860008b73ffffffffffffffffffffffffffffffffffffffff1673ffffffffffffffffffffffffffffffffffffffff16815260200190815260200160002060040160009054906101000a900460ff169450945094509450945091939590929450565b60018054610b4d906114d6565b80601f0160208091040260200160405190810160405280929190818152602001828054610b79906114d6565b8015610bc65780601f10610b9b57610100808354040283529160200191610bc6565b820191906000526020600020905b815481529060010190602001808311610ba957829003601f168201915b505050505081565b600081600960003373ffffffffffffffffffffffffffffffffffffffff1673ffffffffffffffffffffffffffffffffffffffff168152602001908152602001600020541015610c52576040517f08c379a0000000000000000000000000000000000000000000000000000000008152600401610c49906112ee565b60405180910390fd5b610c5a610f8c565b81600960003373ffffffffffffffffffffffffffffffffffffffff1673ffffffffffffffffffffffffffffffffffffffff1681526020019081526020016000206000828254610ca99190611427565b9250508190555081600960008573ffffffffffffffffffffffffffffffffffffffff1673ffffffffffffffffffffffffffffffffffffffff1681526020019081526020016000206000828254610cff91906113d1565b925050819055506000600860008573ffffffffffffffffffffffffffffffffffffffff1673ffffffffffffffffffffffffffffffffffffffff1681526020019081526020016000209050838160020160006101000a81548173ffffffffffffffffffffffffffffffffffffffff021916908373ffffffffffffffffffffffffffffffffffffffff160217905550338160010160006101000a81548173ffffffffffffffffffffffffffffffffffffffff021916908373ffffffffffffffffffffffffffffffffffffffff16021790555060018160040160006101000a81548160ff02191690831515021790555082816003018190555060055481600001819055506007849080600181540180825580915050600190039060005260206000200160009091909190916101000a81548173ffffffffffffffffffffffffffffffffffffffff021916908373ffffffffffffffffffffffffffffffffffffffff1602179055508373ffffffffffffffffffffffffffffffffffffffff163373ffffffffffffffffffffffffffffffffffffffff167fddf252ad1be2c89b69c2b068fc378daa952ba7f163c4a11628f55a4df523b3ef85604051610ec0919061130e565b60405180910390a3600191505092915050565b60606007805480602002602001604051908101604052809291908181526020018280548015610f5757602002820191906000526020600020905b8160009054906101000a900473ffffffffffffffffffffffffffffffffffffffff1673ffffffffffffffffffffffffffffffffffffffff1681526020019060010190808311610f0d575b5050505050905090565b60055481565b600a602052816000526040600020602052806000526040600020600091509150505481565b60056000815480929190610f9f90611508565b9190505550565b600081359050610fb5816115c0565b92915050565b600081359050610fca816115d7565b92915050565b600060208284031215610fe257600080fd5b6000610ff084828501610fa6565b91505092915050565b6000806040838503121561100c57600080fd5b600061101a85828601610fa6565b925050602061102b85828601610fa6565b9150509250929050565b60008060006060848603121561104a57600080fd5b600061105886828701610fa6565b935050602061106986828701610fa6565b925050604061107a86828701610fbb565b9150509250925092565b6000806040838503121561109757600080fd5b60006110a585828601610fa6565b92505060206110b685828601610fbb565b9150509250929050565b6000602082840312156110d257600080fd5b60006110e084828501610fbb565b91505092915050565b60006110f58383611101565b60208301905092915050565b61110a8161145b565b82525050565b6111198161145b565b82525050565b600061112a8261138c565b61113481856113af565b935061113f8361137c565b8060005b8381101561117057815161115788826110e9565b9750611162836113a2565b925050600181019050611143565b5085935050505092915050565b6111868161146d565b82525050565b600061119782611397565b6111a181856113c0565b93506111b18185602086016114a3565b6111ba816115af565b840191505092915050565b60006111d26012836113c0565b91507f416c6c6f77616e636520657863656564656400000000000000000000000000006000830152602082019050919050565b60006112126014836113c0565b91507f496e73756666696369656e742062616c616e63650000000000000000000000006000830152602082019050919050565b61124e81611499565b82525050565b60006020820190506112696000830184611110565b92915050565b60006020820190508181036000830152611289818461111f565b905092915050565b60006020820190506112a6600083018461117d565b92915050565b600060208201905081810//////////360008301526112c6818461118c565b905092915050565b600060208201905081810360008301526112e7816111c5565b9050919050565b6000602082019050818103600083015261130781611205565b9050919050565b60006020820190506113236000830184611245565b92915050565b600060a08201905061133e6000830188611245565b61134b6020830187611110565b6113586040830186611110565b6113656060830185611245565b611372608083018461117d565b9695505050505050565b6000819050602082019050919050565b600081519050919050565b600081519050919050565b6000602082019050919050565b600082825260208201905092915050565b600082825260208201905092915050565b60006113dc82611499565b91506113e783611499565b9250827fffffffffffffffffffffffffffffffffffffffffffffffffffffffffffffffff0382111561141c5761141b611551565b5b828201905092915050565b600061143282611499565b915061143d83611499565b9250828210156114505761144f611551565b5b828203905092915050565b600061146682611479565b9050919050565b60008115159050919050565b600073ffffffffffffffffffffffffffffffffffffffff82169050919050565b6000819050919050565b60005b838110156114c15780820151818401526020810190506114a6565b838111156114d0576000848401525b50505050565b600060028204905060018216806114ee57607f821691505b6020821081141561150257611501611580565b5b50919050565b600061151382611499565b91507fffffffffffffffffffffffffffffffffffffffffffffffffffffffffffffffff82141561154657611545611551565b5b600182019050919050565b7f4e487b7100000000000000000000000000000000000000000000000000000000600052601160045260246000fd5b7f4e487b7100000000000000000000000000000000000000000000000000000000600052602260045260246000fd5b6000601f19601f8301169050919050565b6115c98161145b565b81146115d457600080fd5b50565b6115e081611499565b81146115eb57600080fd5b5056fea2646970667358221220e84485d930cab74ae4bce37a1f071a5ff08e8b6368eed8b85418fd0b9e13564964736f6c63430008000033",
  "deployedBytecode": "0x608060405234801561001057600080fd5b50600436106101005760003560e01c806370a0823111610097578063a9059cbb11610066578063a9059cbb146102e1578063ba8e355714610311578063bc4530e71461032f578063dd62ed3e1461034d57610100565b806370a082311461022f578063760b06c51461025f57806382b682631461028f57806395d89b41146102c357610100565b806329cc66ed116100d357806329cc66ed146101a1578063313ce567146101d5578063468229ae146101f35780635a3b7e421461021157610100565b806306fdde0314610105578063095ea7b31461012357806318160ddd1461015357806323b872dd14610171575b600080fd5b61010d61037d565b60405161011a91906112ac565b60405180910390f35b61013d60048036038101906101389190611084565b61040b565b60405161014a9190611291565b60405180910390f35b61015b6104fd565b604051610168919061130e565b60405180910390f35b61018b60048036038101906101869190611035565b610503565b6040516101989190611291565b60405180910390f35b6101bb60048036038101906101b69190610fd0565b6107f5565b6040516101cc959493929190611329565b60405180910390f35b6101dd610878565b6040516101ea919061130e565b60405180910390f35b6101fb61087e565b6040516102089190611254565b60405180910390f35b6102196108a4565b60405161022691906112ac565b60405180910390f35b61024960048036038101906102449190610fd0565b610932565b604051610256919061130e565b60405180910390f35b610279600480360381019061027491906110c0565b61094a565b6040516102869190611254565b60405180910390f35b6102a960048036038101906102a49190610fd0565b610989565b6040516102ba959493929190611329565b60405180910390f35b6102cb610b40565b6040516102d891906112ac565b60405180910390f35b6102fb60048036038101906102f69190611084565b610bce565b6040516103089190611291565b60405180910390f35b610319610ed3565b604051610326919061126f565b60405180910390f35b610337610f61565b604051610344919061130e565b60405180910390f35b61036760048036038101906103629190610ff9565b610f67565b604051610374919061130e565b60405180910390f35b6000805461038a906114d6565b80601f01602080910402602001604051908101604052809291908181526020018280546103b6906114d6565b80156104035780601f106103d857610100808354040283529160200191610403565b820191906000526020600020905b8154815290600101906020018083116103e657829003601f168201915b505050505081565b600081600a60003373ffffffffffffffffffffffffffffffffffffffff1673ffffffffffffffffffffffffffffffffffffffff16815260200190815260200160002060008573ffffffffffffffffffffffffffffffffffffffff1673ffffffffffffffffffffffffffffffffffffffff168152602001908152602001600020819055508273ffffffffffffffffffffffffffffffffffffffff163373ffffffffffffffffffffffffffffffffffffffff167f8c5be1e5ebec7d5bd14f71427d1e84f3dd0314c0f7b2291e5b200ac8c7c3b925846040516104eb919061130e565b60405180910390a36001905092915050565b60035481565b6000600960008573ffffffffffffffffffffffffffffffffffffffff1673ffffffffffffffffffffffffffffffffffffffff16815260200190815260200160002054821115610587576040517f08c379a000000000000000000000000000000000000000000000000000000000815260040161057e906112ee565b60405180910390fd5b600a60008573ffffffffffffffffffffffffffffffffffffffff1673ffffffffffffffffffffffffffffffffffffffff16815260200190815260200160002060003373ffffffffffffffffffffffffffffffffffffffff1673ffffffffffffffffffffffffffffffffffffffff16815260200190815260200160002054821115610646576040517f08c379a000000000000000000000000000000000000000000000000000000000815260040161063d906112ce565b60405180910390fd5b81600960008673ffffffffffffffffffffffffffffffffffffffff1673ffffffffffffffffffffffffffffffffffffffff16815260200190815260200160002060008282546106959190611427565b9250508190555081600960008573ffffffffffffffffffffffffffffffffffffffff1673ffffffffffffffffffffffffffffffffffffffff16815260200190815260200160002060008282546106eb91906113d1565b9250508190555081600a60008673ffffffffffffffffffffffffffffffffffffffff1673ffffffffffffffffffffffffffffffffffffffff16815260200190815260200160002060003373ffffffffffffffffffffffffffffffffffffffff1673ffffffffffffffffffffffffffffffffffffffff168152602001908152602001600020600082825461077e9190611427565b925050819055508273ffffffffffffffffffffffffffffffffffffffff168473ffffffffffffffffffffffffffffffffffffffff167fddf252ad1be2c89b69c2b068fc378daa952ba7f163c4a11628f55a4df523b3ef846040516107e2919061130e565b60405180910390a3600190509392505050565b60086020528060005260406000206000915090508060000154908060010160009054906101000a900473ffffffffffffffffffffffffffffffffffffffff16908060020160009054906101000a900473ffffffffffffffffffffffffffffffffffffffff16908060030154908060040160009054906101000a900460ff16905085565b60065481565b600460009054906101000a900473ffffffffffffffffffffffffffffffffffffffff1681565b600280546108b1906114d6565b80601f01602080910402602001604051908101604052809291908181526020018280546108dd906114d6565b801561092a5780601f106108ff5761010080835404028352916020019161092a565b820191906000526020600020905b81548152906001019060200180831161090d57829003601f168201915b505050505081565b60096020528060005260406000206000915090505481565b6007818154811061095a57600080fd5b906000526020600020016000915054906101000a900473ffffffffffffffffffffffffffffffffffffffff1681565b6000806000806000600860008773ffffffffffffffffffffffffffffffffffffffff1673ffffffffffffffffffffffffffffffffffffffff16815260200190815260200160002060000154600860008873ffffffffffffffffffffffffffffffffffffffff1673ffffffffffffffffffffffffffffffffffffffff16815260200190815260200160002060020160009054906101000a900473ffffffffffffffffffffffffffffffffffffffff16600860008973ffffffffffffffffffffffffffffffffffffffff1673ffffffffffffffffffffffffffffffffffffffff16815260200190815260200160002060010160009054906101000a900473ffffffffffffffffffffffffffffffffffffffff16600860008a73ffffffffffffffffffffffffffffffffffffffff1673ffffffffffffffffffffffffffffffffffffffff16815260200190815260200160002060030154600860008b73ffffffffffffffffffffffffffffffffffffffff1673ffffffffffffffffffffffffffffffffffffffff16815260200190815260200160002060040160009054906101000a900460ff169450945094509450945091939590929450565b60018054610b4d906114d6565b80601f0160208091040260200160405190810160405280929190818152602001828054610b79906114d6565b8015610bc65780601f10610b9b57610100808354040283529160200191610bc6565b820191906000526020600020905b815481529060010190602001808311610ba957829003601f168201915b505050505081565b600081600960003373ffffffffffffffffffffffffffffffffffffffff1673ffffffffffffffffffffffffffffffffffffffff168152602001908152602001600020541015610c52576040517f08c379a0000000000000000000000000000000000000000000000000000000008152600401610c49906112ee565b60405180910390fd5b610c5a610f8c565b81600960003373ffffffffffffffffffffffffffffffffffffffff1673ffffffffffffffffffffffffffffffffffffffff1681526020019081526020016000206000828254610ca99190611427565b9250508190555081600960008573ffffffffffffffffffffffffffffffffffffffff1673ffffffffffffffffffffffffffffffffffffffff1681526020019081526020016000206000828254610cff91906113d1565b925050819055506000600860008573ffffffffffffffffffffffffffffffffffffffff1673ffffffffffffffffffffffffffffffffffffffff1681526020019081526020016000209050838160020160006101000a81548173ffffffffffffffffffffffffffffffffffffffff021916908373ffffffffffffffffffffffffffffffffffffffff160217905550338160010160006101000a81548173ffffffffffffffffffffffffffffffffffffffff021916908373ffffffffffffffffffffffffffffffffffffffff16021790555060018160040160006101000a81548160ff02191690831515021790555082816003018190555060055481600001819055506007849080600181540180825580915050600190039060005260206000200160009091909190916101000a81548173ffffffffffffffffffffffffffffffffffffffff021916908373ffffffffffffffffffffffffffffffffffffffff1602179055508373ffffffffffffffffffffffffffffffffffffffff163373ffffffffffffffffffffffffffffffffffffffff167fddf252ad1be2c89b69c2b068fc378daa952ba7f163c4a11628f55a4df523b3ef85604051610ec0919061130e565b60405180910390a3600191505092915050565b60606007805480602002602001604051908101604052809291908181526020018280548015610f5757602002820191906000526020600020905b8160009054906101000a900473ffffffffffffffffffffffffffffffffffffffff1673ffffffffffffffffffffffffffffffffffffffff1681526020019060010190808311610f0d575b5050505050905090565b60055481565b600a602052816000526040600020602052806000526040600020600091509150505481565b60056000815480929190610f9f90611508565b9190505550565b600081359050610fb5816115c0565b92915050565b600081359050610fca816115d7565b92915050565b600060208284031215610fe257600080fd5b6000610ff084828501610fa6565b91505092915050565b6000806040838503121561100c57600080fd5b600061101a85828601610fa6565b925050602061102b85828601610fa6565b9150509250929050565b60008060006060848603121561104a57600080fd5b600061105886828701610fa6565b935050602061106986828701610fa6565b925050604061107a86828701610fbb565b9150509250925092565b6000806040838503121561109757600080fd5b60006110a585828601610fa6565b92505060206110b685828601610fbb565b9150509250929050565b6000602082840312156110d257600080fd5b60006110e084828501610fbb565b91505092915050565b60006110f58383611101565b60208301905092915050565b61110a8161145b565b82525050565b6111198161145b565b82525050565b600061112a8261138c565b61113481856113af565b935061113f8361137c565b8060005b8381101561117057815161115788826110e9565b9750611162836113a2565b925050600181019050611143565b5085935050505092915050565b6111868161146d565b82525050565b600061119782611397565b6111a181856113c0565b93506111b18185602086016114a3565b6111ba816115af565b840191505092915050565b60006111d26012836113c0565b91507f416c6c6f77616e636520657863656564656400000000000000000000000000006000830152602082019050919050565b60006112126014836113c0565b91507f496e73756666696369656e742062616c616e63650000000000000000000000006000830152602082019050919050565b61124e81611499565b82525050565b60006020820190506112696000830184611110565b92915050565b60006020820190508181036000830152611289818461111f565b905092915050565b60006020820190506112a6600083018461117d565b92915050565b600060208201905081810360008301526112c6818461118c565b905092915050565b600060208201905081810360008301526112e7816111c5565b9050919050565b6000602082019050818103600083015261130781611205565b9050919050565b60006020820190506113236000830184611245565b92915050565b600060a08201905061133e6000830188611245565b61134b6020830187611110565b6113586040830186611110565b6113656060830185611245565b611372608083018461117d565b9695505050505050565b6000819050602082019050919050565b600081519050919050565b600081519050919050565b6000602082019050919050565b600082825260208201905092915050565b600082825260208201905092915050565b60006113dc82611499565b91506113e783611499565b9250827fffffffffffffffffffffffffffffffffffffffffffffffffffffffffffffffff0382111561141c5761141b611551565b5b828201905092915050565b600061143282611499565b915061143d83611499565b9250828210156114505761144f611551565b5b828203905092915050565b600061146682611479565b9050919050565b60008115159050919050565b600073ffffffffffffffffffffffffffffffffffffffff82169050919050565b6000819050919050565b60005b838110156114c15780820151818401526020810190506114a6565b838111156114d0576000848401525b50505050565b600060028204905060018216806114ee57607f821691505b6020821081141561150257611501611580565b5b50919050565b600061151382611499565b91507fffffffffffffffffffffffffffffffffffffffffffffffffffffffffffffffff82141561154657611545611551565b5b600182019050919050565b7f4e487b7100000000000000000000000000000000000000000000000000000000600052601160045260246000fd5b7f4e487b7100000000000000000000000000000000000000000000000000000000600052602260045260246000fd5b6000601f19601f8301169050919050565b6115c98161145b565b81146115d457600080fd5b50565b6115e081611499565b81146115eb57600080fd5b5056fea2646970667358221220e84485d930cab74ae4bce37a1f071a5ff08e8b6368eed8b85418fd0b9e13564964736f6c63430008000033",
  "linkReferences": {},
  "deployedLinkReferences": {}
}