{
  "_format": "hh-sol-artifact-1",
  "contractName": "TokenSale",
  "sourceName": "contracts/TokenSaleContract.sol",
  "abi": [
    {
      "inputs": [
        {
          "internalType": "contract MountTechSolution",
          "name": "_tokenContract",
          "type": "address"
        },
        {
          "internalType": "uint256",
          "name": "_desiredBnbAmount",
          "type": "uint256"
        }
      ],
      "stateMutability": "nonpayable",
      "type": "constructor"
    },
    {
      "anonymous": false,
      "inputs": [
        {
          "indexed": false,
          "internalType": "address",
          "name": "_buyer",
          "type": "address"
        },
        {
          "indexed": false,
          "internalType": "uint256",
          "name": "_amount",
          "type": "uint256"
        }
      ],
      "name": "Sell",
      "type": "event"
    },
    {
      "inputs": [],
      "name": "buyToken",
      "outputs": [],
      "stateMutability": "payable",
      "type": "function"
    },
    {
      "inputs": [],
      "name": "desiredBnbAmount",
      "outputs": [
        {
          "internalType": "uint256",
          "name": "",
          "type": "uint256"
        }
      ],
      "stateMutability": "view",
      "type": "function"
    },
    {
      "inputs": [],
      "name": "endSale",
      "outputs": [],
      "stateMutability": "nonpayable",
      "type": "function"
    },
    {
      "inputs": [],
      "name": "tokenContract",
      "outputs": [
        {
          "internalType": "contract MountTechSolution",
          "name": "",
          "type": "address"
        }
      ],
      "stateMutability": "view",
      "type": "function"
    },
    {
      "inputs": [],
      "name": "tokensSold",
      "outputs": [
        {
          "internalType": "uint256",
          "name": "",
          "type": "uint256"
        }
      ],
      "stateMutability": "view",
      "type": "function"
    }
  ],
  "bytecode": "0x608060405234801561001057600080fd5b50604051610aed380380610aed833981810160405281019061003291906100eb565b336000806101000a81548173ffffffffffffffffffffffffffffffffffffffff021916908373ffffffffffffffffffffffffffffffffffffffff16021790555081600160006101000a81548173ffffffffffffffffffffffffffffffffffffffff021916908373ffffffffffffffffffffffffffffffffffffffff1602179055508060038190555050506101a3565b6000815190506100d081610175565b92915050565b6000815190506100e58161018c565b92915050565b600080604083850312156100fe57600080fd5b600061010c858286016100c1565b925050602061011d858286016100d6565b9150509250929050565b60006101328261014b565b9050919050565b600061014482610127565b9050919050565b600073ffffffffffffffffffffffffffffffffffffffff82169050919050565b6000819050919050565b61017e81610139565b811461018957600080fd5b50565b6101958161016b565b81146101a057600080fd5b50565b61093b806101b26000396000f3fe60806040526004361061004a5760003560e01c8063380d831b1461004f578063518ab2a81461006657806355a373d6146100915780637007a341146100bc578063a4821719146100e7575b600080fd5b34801561005b57600080fd5b506100646100f1565b005b34801561007257600080fd5b5061007b610334565b604051610088919061075a565b60405180910390f35b34801561009d57600080fd5b506100a661033a565b6040516100b391906106ff565b60405180910390f35b3480156100c857600080fd5b506100d1610360565b6040516100de919061075a565b60405180910390f35b6100ef610366565b005b60008054906101000a900473ffffffffffffffffffffffffffffffffffffffff1673ffffffffffffffffffffffffffffffffffffffff163373ffffffffffffffffffffffffffffffffffffffff161461014957600080fd5b600160009054906101000a900473ffffffffffffffffffffffffffffffffffffffff1673ffffffffffffffffffffffffffffffffffffffff1663a9059cbb60008054906101000a900473ffffffffffffffffffffffffffffffffffffffff16600160009054906101000a900473ffffffffffffffffffffffffffffffffffffffff1673ffffffffffffffffffffffffffffffffffffffff166370a08231306040518263ffffffff1660e01b815260040161020391906106bb565b60206040518083038186803b15801561021b57600080fd5b505afa15801561022f573d6000803e3d6000fd5b505050506040513d601f19601f8201168201806040525081019061025391906105bf565b6040518363ffffffff1660e01b81526004016102709291906106d6565b602060405180830381600087803b15801561028a57600080fd5b505af115801561029e573d6000803e3d6000fd5b505050506040513d601f19601f820116820180604052508101906102c29190610596565b6102cb57600080fd5b60008054906101000a900473ffffffffffffffffffffffffffffffffffffffff1673ffffffffffffffffffffffffffffffffffffffff166108fc479081150290604051600060405180830381858888f19350505050158015610331573d6000803e3d6000fd5b50565b60025481565b600160009054906101000a900473ffffffffffffffffffffffffffffffffffffffff1681565b60035481565b6000600354116103ab576040517f08c379a00000000000000000000000000000000000000000000000000000000081526004016103a29061073a565b60405180910390fd5b600034116103ee576040517f08c379a00000000000000000000000000000000000000000000000000000000081526004016103e59061071a565b60405180910390fd5b6000600354346103fe91906107dc565b905080600260008282546104129190610786565b92505081905550600160009054906101000a900473ffffffffffffffffffffffffffffffffffffffff1673ffffffffffffffffffffffffffffffffffffffff1663a9059cbb33836040518363ffffffff1660e01b81526004016104769291906106d6565b602060405180830381600087803b15801561049057600080fd5b505af11580156104a4573d6000803e3d6000fd5b505050506040513d601f19601f820116820180604052508101906104c89190610596565b507f5e5e995ce3133561afceaa51a9a154d5db228cd7525d34df5185582c18d3df0933826040516104fa9291906106d6565b60405180910390a160008054906101000a900473ffffffffffffffffffffffffffffffffffffffff1673ffffffffffffffffffffffffffffffffffffffff166108fc349081150290604051600060405180830381858888f19350505050158015610568573d6000803e3d6000fd5b5050565b60008151905061057b816108d7565b92915050565b600081519050610590816108ee565b92915050565b6000602082840312156105a857600080fd5b60006105b68482850161056c565b91505092915050565b6000602082840312156105d157600080fd5b60006105df84828501610581565b91505092915050565b6105f18161080d565b82525050565b61060081610855565b82525050565b6000610613602083610775565b91507f4d7573742073656e6420424e4220746f20707572636861736520746f6b656e736000830152602082019050919050565b6000610653603683610775565b91507f4465736972656420424e4220616d6f756e742070657220746f6b656e206d757360008301527f742062652067726561746572207468616e207a65726f000000000000000000006020830152604082019050919050565b6106b58161084b565b82525050565b60006020820190506106d060008301846105e8565b92915050565b60006040820190506106eb60008301856105e8565b6106f860208301846106ac565b9392505050565b600060208201905061071460008301846105f7565b92915050565b6000602082019050818103600083015261073381610606565b9050919050565b6000602082019050818103600083015261075381610646565b9050919050565b600060208201905061076f60008301846106ac565b92915050565b600082825260208201905092915050565b60006107918261084b565b915061079c8361084b565b9250827fffffffffffffffffffffffffffffffffffffffffffffffffffffffffffffffff038211156107d1576107d0610879565b5b828201905092915050565b60006107e78261084b565b91506107f28361084b565b925082610802576108016108a8565b5b828204905092915050565b60006108188261082b565b9050919050565b60008115159050919050565b600073ffffffffffffffffffffffffffffffffffffffff82169050919050565b6000819050919050565b600061086082610867565b9050919050565b60006108728261082b565b9050919050565b7f4e487b7100000000000000000000000000000000000000000000000000000000600052601160045260246000fd5b7f4e487b7100000000000000000000000000000000000000000000000000000000600052601260045260246000fd5b6108e08161081f565b81146108eb57600080fd5b50565b6108f78161084b565b811461090257600080fd5b5056fea2646970667358221220ff205965572fac471a874e80fc531fe7e21d2f009f2e61d5268c1e5cc21a2a9d64736f6c63430008000033",
  "linkReferences": {},
  "deployedLinkReferences": {}
}