{
  "_format": "hh-sol-artifact-1",
  "contractName": "TokenSale",
  "sourceName": "contracts/TokenSaleContract.sol",
  "abi": [
    {
      "inputs": [
        {
          "internalType": "contract MountTechSolution",
          "name": "_tokenContract",
          "type": "address"
        },
        {
          "internalType": "uint256",
          "name": "_desiredEtherAmount",
          "type": "uint256"
        }
      ],
      "stateMutability": "nonpayable",
      "type": "constructor"
    },
    {
      "anonymous": false,
      "inputs": [
        {
          "indexed": false,
          "internalType": "address",
          "name": "_buyer",
          "type": "address"
        },
        {
          "indexed": false,
          "internalType": "uint256",
          "name": "_amount",
          "type": "uint256"
        }
      ],
      "name": "Sell",
      "type": "event"
    },
    {
      "inputs": [],
      "name": "admin",
      "outputs": [
        {
          "internalType": "address",
          "name": "",
          "type": "address"
        }
      ],
      "stateMutability": "view",
      "type": "function"
    },
    {
      "inputs": [],
      "name": "buyToken",
      "outputs": [],
      "stateMutability": "payable",
      "type": "function"
    },
    {
      "inputs": [],
      "name": "desiredEtherAmount",
      "outputs": [
        {
          "internalType": "uint256",
          "name": "",
          "type": "uint256"
        }
      ],
      "stateMutability": "view",
      "type": "function"
    },
    {
      "inputs": [],
      "name": "endSale",
      "outputs": [],
      "stateMutability": "nonpayable",
      "type": "function"
    },
    {
      "inputs": [],
      "name": "tokenContract",
      "outputs": [
        {
          "internalType": "contract MountTechSolution",
          "name": "",
          "type": "address"
        }
      ],
      "stateMutability": "view",
      "type": "function"
    },
    {
      "inputs": [],
      "name": "tokensSold",
      "outputs": [
        {
          "internalType": "uint256",
          "name": "",
          "type": "uint256"
        }
      ],
      "stateMutability": "view",
      "type": "function"
    }
  ],
  "bytecode": "0x60806040523480156200001157600080fd5b506040516200100c3803806200100c8339818101604052810190620000379190620000f5565b336000806101000a81548173ffffffffffffffffffffffffffffffffffffffff021916908373ffffffffffffffffffffffffffffffffffffffff16021790555081600160006101000a81548173ffffffffffffffffffffffffffffffffffffffff021916908373ffffffffffffffffffffffffffffffffffffffff160217905550806003819055505050620001bc565b600081519050620000d88162000188565b92915050565b600081519050620000ef81620001a2565b92915050565b600080604083850312156200010957600080fd5b60006200011985828601620000c7565b92505060206200012c85828601620000de565b9150509250929050565b600062000143826200015e565b9050919050565b6000620001578262000136565b9050919050565b600073ffffffffffffffffffffffffffffffffffffffff82169050919050565b6000819050919050565b62000193816200014a565b81146200019f57600080fd5b50565b620001ad816200017e565b8114620001b957600080fd5b50565b610e4080620001cc6000396000f3fe6080604052600436106100555760003560e01c8063380d831b1461005a578063518ab2a81461007157806355a373d61461009c578063a4821719146100c7578063b0ad6231146100d1578063f851a440146100fc575b600080fd5b34801561006657600080fd5b5061006f610127565b005b34801561007d57600080fd5b506100866103d6565b6040516100939190610a87565b60405180910390f35b3480156100a857600080fd5b506100b16103dc565b6040516100be91906109cc565b60405180910390f35b6100cf610402565b005b3480156100dd57600080fd5b506100e6610703565b6040516100f39190610a87565b60405180910390f35b34801561010857600080fd5b50610111610709565b60405161011e9190610988565b60405180910390f35b60008054906101000a900473ffffffffffffffffffffffffffffffffffffffff1673ffffffffffffffffffffffffffffffffffffffff163373ffffffffffffffffffffffffffffffffffffffff16146101b5576040517f08c379a00000000000000000000000000000000000000000000000000000000081526004016101ac906109e7565b60405180910390fd5b600160009054906101000a900473ffffffffffffffffffffffffffffffffffffffff1673ffffffffffffffffffffffffffffffffffffffff1663a9059cbb60008054906101000a900473ffffffffffffffffffffffffffffffffffffffff16600160009054906101000a900473ffffffffffffffffffffffffffffffffffffffff1673ffffffffffffffffffffffffffffffffffffffff166370a08231306040518263ffffffff1660e01b815260040161026f9190610988565b60206040518083038186803b15801561028757600080fd5b505afa15801561029b573d6000803e3d6000fd5b505050506040513d601f19601f820116820180604052508101906102bf9190610780565b6040518363ffffffff1660e01b81526004016102dc9291906109a3565b602060405180830381600087803b1580156102f657600080fd5b505af115801561030a573d6000803e3d6000fd5b505050506040513d601f19601f8201168201806040525081019061032e9190610757565b61036d576040517f08c379a000000000000000000000000000000000000000000000000000000000815260040161036490610a07565b60405180910390fd5b60008054906101000a900473ffffffffffffffffffffffffffffffffffffffff1673ffffffffffffffffffffffffffffffffffffffff166108fc479081150290604051600060405180830381858888f193505050501580156103d3573d6000803e3d6000fd5b50565b60025481565b600160009054906101000a900473ffffffffffffffffffffffffffffffffffffffff1681565b600060035411610447576040517f08c379a000000000000000000000000000000000000000000000000000000000815260040161043e90610a27565b60405180910390fd5b6000341161048a576040517f08c379a000000000000000000000000000000000000000000000000000000000815260040161048190610a47565b60405180910390fd5b6000600354600160009054906101000a900473ffffffffffffffffffffffffffffffffffffffff1673ffffffffffffffffffffffffffffffffffffffff1663313ce5676040518163ffffffff1660e01b815260040160206040518083038186803b1580156104f757600080fd5b505afa15801561050b573d6000803e3d6000fd5b505050506040513d601f19601f8201168201806040525081019061052f9190610780565b600a61053b9190610b8d565b346105469190610cab565b6105509190610b09565b90506101f4811015610597576040517f08c379a000000000000000000000000000000000000000000000000000000000815260040161058e90610a67565b60405180910390fd5b600160009054906101000a900473ffffffffffffffffffffffffffffffffffffffff1673ffffffffffffffffffffffffffffffffffffffff1663a9059cbb33836040518363ffffffff1660e01b81526004016105f49291906109a3565b602060405180830381600087803b15801561060e57600080fd5b505af1158015610622573d6000803e3d6000fd5b505050506040513d601f19601f820116820180604052508101906106469190610757565b5080600260008282546106599190610ab3565b925050819055507f5e5e995ce3133561afceaa51a9a154d5db228cd7525d34df5185582c18d3df0933826040516106919291906109a3565b60405180910390a160008054906101000a900473ffffffffffffffffffffffffffffffffffffffff1673ffffffffffffffffffffffffffffffffffffffff166108fc349081150290604051600060405180830381858888f193505050501580156106ff573d6000803e3d6000fd5b5050565b60035481565b60008054906101000a900473ffffffffffffffffffffffffffffffffffffffff1681565b60008151905061073c81610ddc565b92915050565b60008151905061075181610df3565b92915050565b60006020828403121561076957600080fd5b60006107778482850161072d565b91505092915050565b60006020828403121561079257600080fd5b60006107a084828501610742565b91505092915050565b6107b281610d05565b82525050565b6107c181610d4d565b82525050565b60006107d4601b83610aa2565b91507f4f6e6c792061646d696e2063616e20656e64207468652073616c6500000000006000830152602082019050919050565b6000610814601583610aa2565b91507f546f6b656e207472616e73666572206661696c656400000000000000000000006000830152602082019050919050565b6000610854602e83610aa2565b91507f4465736972656420457468657220616d6f756e74206d7573742062652067726560008301527f61746572207468616e207a65726f0000000000000000000000000000000000006020830152604082019050919050565b60006108ba602283610aa2565b91507f4d7573742073656e6420457468657220746f20707572636861736520746f6b6560008301527f6e730000000000000000000000000000000000000000000000000000000000006020830152604082019050919050565b6000610920602e83610aa2565b91507f496e73756666696369656e742045746865722073656e7420746f20707572636860008301527f61736520616e7920746f6b656e730000000000000000000000000000000000006020830152604082019050919050565b61098281610d43565b82525050565b600060208201905061099d60008301846107a9565b92915050565b60006040820190506109b860008301856107a9565b6109c56020830184610979565b9392505050565b60006020820190506109e160008301846107b8565b92915050565b60006020820190508181036000830152610a00816107c7565b9050919050565b60006020820190508181036000830152610a2081610807565b9050919050565b60006020820190508181036000830152610a4081610847565b9050919050565b60006020820190508181036000830152610a60816108ad565b9050919050565b60006020820190508181036000830152610a8081610913565b9050919050565b6000602082019050610a9c6000830184610979565b92915050565b600082825260208201905092915050565b6000610abe82610d43565b9150610ac983610d43565b9250827fffffffffffffffffffffffffffffffffffffffffffffffffffffffffffffffff03821115610afe57610afd610d71565b5b828201905092915050565b6000610b1482610d43565b9150610b1f83610d43565b925082610b2f57610b2e610da0565b5b828204905092915050565b6000808291508390505b6001851115610b8457808604811115610b6057610b5f610d71565b5b6001851615610b6f5780820291505b8081029050610b7d85610dcf565b9450610b44565b94509492505050565b6000610b9882610d43565b9150610ba383610d43565b9250610bd07fffffffffffffffffffffffffffffffffffffffffffffffffffffffffffffffff8484610bd8565b905092915050565b600082610be85760019050610ca4565b81610bf65760009050610ca4565b8160018114610c0c5760028114610c1657610c45565b6001915050610ca4565b60ff841115610c2857610c27610d71565b5b8360020a915084821115610c3f57610c3e610d71565b5b50610ca4565b5060208310610133831016604e8410600b8410161715610c7a5782820a905083811115610c7557610c74610d71565b5b610ca4565b610c878484846001610b3a565b92509050818404811115610c9e57610c9d610d71565b5b81810290505b9392505050565b6000610cb682610d43565b9150610cc183610d43565b9250817fffffffffffffffffffffffffffffffffffffffffffffffffffffffffffffffff0483118215151615610cfa57610cf9610d71565b5b828202905092915050565b6000610d1082610d23565b9050919050565b60008115159050919050565b600073ffffffffffffffffffffffffffffffffffffffff82169050919050565b6000819050919050565b6000610d5882610d5f565b9050919050565b6000610d6a82610d23565b9050919050565b7f4e487b7100000000000000000000000000000000000000000000000000000000600052601160045260246000fd5b7f4e487b7100000000000000000000000000000000000000000000000000000000600052601260045260246000fd5b60008160011c9050919050565b610de581610d17565b8114610df057600080fd5b50565b610dfc81610d43565b8114610e0757600080fd5b5056fea26469706673582212204f0021744ad9c70dbd192bb23ac7095caf0f3d5c05bfa11788011891b008ce2964736f6c63430008000033",
  "linkReferences": {},
  "deployedLinkReferences": {}
}