{
  "_format": "hh-sol-artifact-1",
  "contractName": "TokenSale",
  "sourceName": "contracts/TokenSaleContract.sol",
  "abi": [
    {
      "inputs": [
        {
          "internalType": "contract MountTechSolution",
          "name": "_tokenContract",
          "type": "address"
        },
        {
          "internalType": "uint256",
          "name": "_desiredEtherAmount",
          "type": "uint256"
        }
      ],
      "stateMutability": "nonpayable",
      "type": "constructor"
    },
    {
      "anonymous": false,
      "inputs": [
        {
          "indexed": false,
          "internalType": "address",
          "name": "_buyer",
          "type": "address"
        },
        {
          "indexed": false,
          "internalType": "uint256",
          "name": "_amount",
          "type": "uint256"
        }
      ],
      "name": "Sell",
      "type": "event"
    },
    {
      "inputs": [],
      "name": "buyToken",
      "outputs": [],
      "stateMutability": "payable",
      "type": "function"
    },
    {
      "inputs": [],
      "name": "desiredEtherAmount",
      "outputs": [
        {
          "internalType": "uint256",
          "name": "",
          "type": "uint256"
        }
      ],
      "stateMutability": "view",
      "type": "function"
    },
    {
      "inputs": [],
      "name": "endSale",
      "outputs": [],
      "stateMutability": "nonpayable",
      "type": "function"
    },
    {
      "inputs": [],
      "name": "tokenContract",
      "outputs": [
        {
          "internalType": "contract MountTechSolution",
          "name": "",
          "type": "address"
        }
      ],
      "stateMutability": "view",
      "type": "function"
    },
    {
      "inputs": [],
      "name": "tokensSold",
      "outputs": [
        {
          "internalType": "uint256",
          "name": "",
          "type": "uint256"
        }
      ],
      "stateMutability": "view",
      "type": "function"
    }
  ],
  "bytecode": "0x60806040523480156200001157600080fd5b5060405162000e1f38038062000e1f8339818101604052810190620000379190620000f5565b336000806101000a81548173ffffffffffffffffffffffffffffffffffffffff021916908373ffffffffffffffffffffffffffffffffffffffff16021790555081600160006101000a81548173ffffffffffffffffffffffffffffffffffffffff021916908373ffffffffffffffffffffffffffffffffffffffff160217905550806003819055505050620001bc565b600081519050620000d88162000188565b92915050565b600081519050620000ef81620001a2565b92915050565b600080604083850312156200010957600080fd5b60006200011985828601620000c7565b92505060206200012c85828601620000de565b9150509250929050565b600062000143826200015e565b9050919050565b6000620001578262000136565b9050919050565b600073ffffffffffffffffffffffffffffffffffffffff82169050919050565b6000819050919050565b62000193816200014a565b81146200019f57600080fd5b50565b620001ad816200017e565b8114620001b957600080fd5b50565b610c5380620001cc6000396000f3fe60806040526004361061004a5760003560e01c8063380d831b1461004f578063518ab2a81461006657806355a373d614610091578063a4821719146100bc578063b0ad6231146100c6575b600080fd5b34801561005b57600080fd5b506100646100f1565b005b34801561007257600080fd5b5061007b610334565b604051610088919061089a565b60405180910390f35b34801561009d57600080fd5b506100a661033a565b6040516100b3919061081f565b60405180910390f35b6100c4610360565b005b3480156100d257600080fd5b506100db6105fa565b6040516100e8919061089a565b60405180910390f35b60008054906101000a900473ffffffffffffffffffffffffffffffffffffffff1673ffffffffffffffffffffffffffffffffffffffff163373ffffffffffffffffffffffffffffffffffffffff161461014957600080fd5b600160009054906101000a900473ffffffffffffffffffffffffffffffffffffffff1673ffffffffffffffffffffffffffffffffffffffff1663a9059cbb60008054906101000a900473ffffffffffffffffffffffffffffffffffffffff16600160009054906101000a900473ffffffffffffffffffffffffffffffffffffffff1673ffffffffffffffffffffffffffffffffffffffff166370a08231306040518263ffffffff1660e01b815260040161020391906107db565b60206040518083038186803b15801561021b57600080fd5b505afa15801561022f573d6000803e3d6000fd5b505050506040513d601f19601f820116820180604052508101906102539190610653565b6040518363ffffffff1660e01b81526004016102709291906107f6565b602060405180830381600087803b15801561028a57600080fd5b505af115801561029e573d6000803e3d6000fd5b505050506040513d601f19601f820116820180604052508101906102c2919061062a565b6102cb57600080fd5b60008054906101000a900473ffffffffffffffffffffffffffffffffffffffff1673ffffffffffffffffffffffffffffffffffffffff166108fc479081150290604051600060405180830381858888f19350505050158015610331573d6000803e3d6000fd5b50565b60025481565b600160009054906101000a900473ffffffffffffffffffffffffffffffffffffffff1681565b6000600354116103a5576040517f08c379a000000000000000000000000000000000000000000000000000000000815260040161039c9061083a565b60405180910390fd5b600034116103e8576040517f08c379a00000000000000000000000000000000000000000000000000000000081526004016103df9061085a565b60405180910390fd5b6000600354600160009054906101000a900473ffffffffffffffffffffffffffffffffffffffff1673ffffffffffffffffffffffffffffffffffffffff1663313ce5676040518163ffffffff1660e01b815260040160206040518083038186803b15801561045557600080fd5b505afa158015610469573d6000803e3d6000fd5b505050506040513d601f19601f8201168201806040525081019061048d9190610653565b600a61049991906109a0565b346104a49190610abe565b6104ae919061091c565b90506101f48110156104f5576040517f08c379a00000000000000000000000000000000000000000000000000000000081526004016104ec9061087a565b60405180910390fd5b600160009054906101000a900473ffffffffffffffffffffffffffffffffffffffff1673ffffffffffffffffffffffffffffffffffffffff1663a9059cbb33836040518363ffffffff1660e01b81526004016105529291906107f6565b602060405180830381600087803b15801561056c57600080fd5b505af1158015610580573d6000803e3d6000fd5b505050506040513d601f19601f820116820180604052508101906105a4919061062a565b5080600260008282546105b791906108c6565b925050819055507f5e5e995ce3133561afceaa51a9a154d5db228cd7525d34df5185582c18d3df0933826040516105ef9291906107f6565b60405180910390a150565b60035481565b60008151905061060f81610bef565b92915050565b60008151905061062481610c06565b92915050565b60006020828403121561063c57600080fd5b600061064a84828501610600565b91505092915050565b60006020828403121561066557600080fd5b600061067384828501610615565b91505092915050565b61068581610b18565b82525050565b61069481610b60565b82525050565b60006106a7602e836108b5565b91507f4465736972656420457468657220616d6f756e74206d7573742062652067726560008301527f61746572207468616e207a65726f0000000000000000000000000000000000006020830152604082019050919050565b600061070d6022836108b5565b91507f4d7573742073656e6420457468657220746f20707572636861736520746f6b6560008301527f6e730000000000000000000000000000000000000000000000000000000000006020830152604082019050919050565b6000610773602e836108b5565b91507f496e73756666696369656e742045746865722073656e7420746f20707572636860008301527f61736520616e7920746f6b656e730000000000000000000000000000000000006020830152604082019050919050565b6107d581610b56565b82525050565b60006020820190506107f0600083018461067c565b92915050565b600060408201905061080b600083018561067c565b61081860208301846107cc565b9392505050565b6000602082019050610834600083018461068b565b92915050565b600060208201905081810360008301526108538161069a565b9050919050565b6000602082019050818103600083015261087381610700565b9050919050565b6000602082019050818103600083015261089381610766565b9050919050565b60006020820190506108af60008301846107cc565b92915050565b600082825260208201905092915050565b60006108d182610b56565b91506108dc83610b56565b9250827fffffffffffffffffffffffffffffffffffffffffffffffffffffffffffffffff0382111561091157610910610b84565b5b828201905092915050565b600061092782610b56565b915061093283610b56565b92508261094257610941610bb3565b5b828204905092915050565b6000808291508390505b60018511156109975780860481111561097357610972610b84565b5b60018516156109825780820291505b808102905061099085610be2565b9450610957565b94509492505050565b60006109ab82610b56565b91506109b683610b56565b92506109e37fffffffffffffffffffffffffffffffffffffffffffffffffffffffffffffffff84846109eb565b905092915050565b6000826109fb5760019050610ab7565b81610a095760009050610ab7565b8160018114610a1f5760028114610a2957610a58565b6001915050610ab7565b60ff841115610a3b57610a3a610b84565b5b8360020a915084821115610a5257610a51610b84565b5b50610ab7565b5060208310610133831016604e8410600b8410161715610a8d5782820a905083811115610a8857610a87610b84565b5b610ab7565b610a9a848484600161094d565b92509050818404811115610ab157610ab0610b84565b5b81810290505b9392505050565b6000610ac982610b56565b9150610ad483610b56565b9250817fffffffffffffffffffffffffffffffffffffffffffffffffffffffffffffffff0483118215151615610b0d57610b0c610b84565b5b828202905092915050565b6000610b2382610b36565b9050919050565b60008115159050919050565b600073ffffffffffffffffffffffffffffffffffffffff82169050919050565b6000819050919050565b6000610b6b82610b72565b9050919050565b6000610b7d82610b36565b9050919050565b7f4e487b7100000000000000000000000000000000000000000000000000000000600052601160045260246000fd5b7f4e487b7100000000000000000000000000000000000000000000000000000000600052601260045260246000fd5b60008160011c9050919050565b610bf881610b2a565b8114610c0357600080fd5b50565b610c0f81610b56565b8114610c1a57600080fd5b5056fea2646970667358221220aede66f938b1e3e974e640400e7ea974c6e0c3fcd3b2d3c9155002a4ddda8a2e64736f6c63430008000033",
  "linkReferences": {},
  "deployedLinkReferences": {}
}