{
  "_format": "hh-sol-artifact-1",
  "contractName": "TokenSale",
  "sourceName": "contracts/TokenSaleContract.sol",
  "abi": [
    {
      "inputs": [
        {
          "internalType": "contract MountTechSolution",
          "name": "_tokenContract",
          "type": "address"
        },
        {
          "internalType": "uint256",
          "name": "_desiredEtherAmount",
          "type": "uint256"
        }
      ],
      "stateMutability": "nonpayable",
      "type": "constructor"
    },
    {
      "anonymous": false,
      "inputs": [
        {
          "indexed": false,
          "internalType": "address",
          "name": "_buyer",
          "type": "address"
        },
        {
          "indexed": false,
          "internalType": "uint256",
          "name": "_amount",
          "type": "uint256"
        }
      ],
      "name": "Sell",
      "type": "event"
    },
    {
      "inputs": [],
      "name": "admin",
      "outputs": [
        {
          "internalType": "address",
          "name": "",
          "type": "address"
        }
      ],
      "stateMutability": "view",
      "type": "function"
    },
    {
      "inputs": [],
      "name": "buyToken",
      "outputs": [],
      "stateMutability": "payable",
      "type": "function"
    },
    {
      "inputs": [],
      "name": "desiredEtherAmount",
      "outputs": [
        {
          "internalType": "uint256",
          "name": "",
          "type": "uint256"
        }
      ],
      "stateMutability": "view",
      "type": "function"
    },
    {
      "inputs": [],
      "name": "endSale",
      "outputs": [],
      "stateMutability": "nonpayable",
      "type": "function"
    },
    {
      "inputs": [],
      "name": "tokenContract",
      "outputs": [
        {
          "internalType": "contract MountTechSolution",
          "name": "",
          "type": "address"
        }
      ],
      "stateMutability": "view",
      "type": "function"
    },
    {
      "inputs": [],
      "name": "tokensSold",
      "outputs": [
        {
          "internalType": "uint256",
          "name": "",
          "type": "uint256"
        }
      ],
      "stateMutability": "view",
      "type": "function"
    }
  ],
  "bytecode": "0x60806040523480156200001157600080fd5b5060405162000df138038062000df18339818101604052810190620000379190620000f5565b336000806101000a81548173ffffffffffffffffffffffffffffffffffffffff021916908373ffffffffffffffffffffffffffffffffffffffff16021790555081600160006101000a81548173ffffffffffffffffffffffffffffffffffffffff021916908373ffffffffffffffffffffffffffffffffffffffff160217905550806003819055505050620001bc565b600081519050620000d88162000188565b92915050565b600081519050620000ef81620001a2565b92915050565b600080604083850312156200010957600080fd5b60006200011985828601620000c7565b92505060206200012c85828601620000de565b9150509250929050565b600062000143826200015e565b9050919050565b6000620001578262000136565b9050919050565b600073ffffffffffffffffffffffffffffffffffffffff82169050919050565b6000819050919050565b62000193816200014a565b81146200019f57600080fd5b50565b620001ad816200017e565b8114620001b957600080fd5b50565b610c2580620001cc6000396000f3fe6080604052600436106100555760003560e01c8063380d831b1461005a578063518ab2a81461007157806355a373d61461009c578063a4821719146100c7578063b0ad6231146100d1578063f851a440146100fc575b600080fd5b34801561006657600080fd5b5061006f610127565b005b34801561007d57600080fd5b506100866103d6565b60405161009391906109ea565b60405180910390f35b3480156100a857600080fd5b506100b16103dc565b6040516100be919061092f565b60405180910390f35b6100cf610402565b005b3480156100dd57600080fd5b506100e6610666565b6040516100f391906109ea565b60405180910390f35b34801561010857600080fd5b5061011161066c565b60405161011e91906108eb565b60405180910390f35b60008054906101000a900473ffffffffffffffffffffffffffffffffffffffff1673ffffffffffffffffffffffffffffffffffffffff163373ffffffffffffffffffffffffffffffffffffffff16146101b5576040517f08c379a00000000000000000000000000000000000000000000000000000000081526004016101ac9061094a565b60405180910390fd5b600160009054906101000a900473ffffffffffffffffffffffffffffffffffffffff1673ffffffffffffffffffffffffffffffffffffffff1663a9059cbb60008054906101000a900473ffffffffffffffffffffffffffffffffffffffff16600160009054906101000a900473ffffffffffffffffffffffffffffffffffffffff1673ffffffffffffffffffffffffffffffffffffffff166370a08231306040518263ffffffff1660e01b815260040161026f91906108eb565b60206040518083038186803b15801561028757600080fd5b505afa15801561029b573d6000803e3d6000fd5b505050506040513d601f19601f820116820180604052508101906102bf91906106e3565b6040518363ffffffff1660e01b81526004016102dc929190610906565b602060405180830381600087803b1580156102f657600080fd5b505af115801561030a573d6000803e3d6000fd5b505050506040513d601f19601f8201168201806040525081019061032e91906106ba565b61036d576040517f08c379a00000000000000000000000000000000000000000000000000000000081526004016103649061096a565b60405180910390fd5b60008054906101000a900473ffffffffffffffffffffffffffffffffffffffff1673ffffffffffffffffffffffffffffffffffffffff166108fc479081150290604051600060405180830381858888f193505050501580156103d3573d6000803e3d6000fd5b50565b60025481565b600160009054906101000a900473ffffffffffffffffffffffffffffffffffffffff1681565b600060035411610447576040517f08c379a000000000000000000000000000000000000000000000000000000000815260040161043e9061098a565b60405180910390fd5b6000341161048a576040517f08c379a0000000000000000000000000000000000000000000000000000000008152600401610481906109aa565b60405180910390fd5b6000600354670de0b6b3a7640000346104a39190610a9d565b6104ad9190610a6c565b9050670de0b6b3a76400008110156104fa576040517f08c379a00000000000000000000000000000000000000000000000000000000081526004016104f1906109ca565b60405180910390fd5b600160009054906101000a900473ffffffffffffffffffffffffffffffffffffffff1673ffffffffffffffffffffffffffffffffffffffff1663a9059cbb33836040518363ffffffff1660e01b8152600401610557929190610906565b602060405180830381600087803b15801561057157600080fd5b505af1158015610585573d6000803e3d6000fd5b505050506040513d601f19601f820116820180604052508101906105a991906106ba565b5080600260008282546105bc9190610a16565b925050819055507f5e5e995ce3133561afceaa51a9a154d5db228cd7525d34df5185582c18d3df0933826040516105f4929190610906565b60405180910390a160008054906101000a900473ffffffffffffffffffffffffffffffffffffffff1673ffffffffffffffffffffffffffffffffffffffff166108fc349081150290604051600060405180830381858888f19350505050158015610662573d6000803e3d6000fd5b5050565b60035481565b60008054906101000a900473ffffffffffffffffffffffffffffffffffffffff1681565b60008151905061069f81610bc1565b92915050565b6000815190506106b481610bd8565b92915050565b6000602082840312156106cc57600080fd5b60006106da84828501610690565b91505092915050565b6000602082840312156106f557600080fd5b6000610703848285016106a5565b91505092915050565b61071581610af7565b82525050565b61072481610b3f565b82525050565b6000610737601b83610a05565b91507f4f6e6c792061646d696e2063616e20656e64207468652073616c6500000000006000830152602082019050919050565b6000610777601583610a05565b91507f546f6b656e207472616e73666572206661696c656400000000000000000000006000830152602082019050919050565b60006107b7602e83610a05565b91507f4465736972656420457468657220616d6f756e74206d7573742062652067726560008301527f61746572207468616e207a65726f0000000000000000000000000000000000006020830152604082019050919050565b600061081d602283610a05565b91507f4d7573742073656e6420457468657220746f20707572636861736520746f6b6560008301527f6e730000000000000000000000000000000000000000000000000000000000006020830152604082019050919050565b6000610883602e83610a05565b91507f496e73756666696369656e742045746865722073656e7420746f20707572636860008301527f61736520616e7920746f6b656e730000000000000000000000000000000000006020830152604082019050919050565b6108e581610b35565b82525050565b6000602082019050610900600083018461070c565b92915050565b600060408201905061091b600083018561070c565b61092860208301846108dc565b9392505050565b6000602082019050610944600083018461071b565b92915050565b600060208201905081810360008301526109638161072a565b9050919050565b600060208201905081810360008301526109838161076a565b9050919050565b600060208201905081810360008301526109a3816107aa565b9050919050565b600060208201905081810360008301526109c381610810565b9050919050565b600060208201905081810360008301526109e381610876565b9050919050565b60006020820190506109ff60008301846108dc565b92915050565b600082825260208201905092915050565b6000610a2182610b35565b9150610a2c83610b35565b9250827fffffffffffffffffffffffffffffffffffffffffffffffffffffffffffffffff03821115610a6157610a60610b63565b5b828201905092915050565b6000610a7782610b35565b9150610a8283610b35565b925082610a9257610a91610b92565b5b828204905092915050565b6000610aa882610b35565b9150610ab383610b35565b9250817fffffffffffffffffffffffffffffffffffffffffffffffffffffffffffffffff0483118215151615610aec57610aeb610b63565b5b828202905092915050565b6000610b0282610b15565b9050919050565b60008115159050919050565b600073ffffffffffffffffffffffffffffffffffffffff82169050919050565b6000819050919050565b6000610b4a82610b51565b9050919050565b6000610b5c82610b15565b9050919050565b7f4e487b7100000000000000000000000000000000000000000000000000000000600052601160045260246000fd5b7f4e487b7100000000000000000000000000000000000000000000000000000000600052601260045260246000fd5b610bca81610b09565b8114610bd557600080fd5b50565b610be181610b35565b8114610bec57600080fd5b5056fea2646970667358221220effe93b53de571619c40b0eac4c28643a7b2ed266db19e2edba5ad3bd2b18afd64736f6c63430008000033",
  "linkReferences": {},
  "deployedLinkReferences": {}
}